{
  "address": "0x6FAe6837b758096C22c3f1C45459cfDe0754931F",
  "abi": [
    {
      "inputs": [
        {
          "internalType": "address",
          "name": "exampleExternalContractAddress",
          "type": "address"
        }
      ],
      "stateMutability": "nonpayable",
      "type": "constructor"
    },
    {
      "inputs": [],
      "name": "ExecutedAlready",
      "type": "error"
    },
    {
      "inputs": [],
      "name": "StakeDoesNotExistWithdrawn",
      "type": "error"
    },
    {
      "inputs": [],
      "name": "StakingDeadlineHasPasssed",
      "type": "error"
    },
    {
      "inputs": [],
      "name": "StakingStillOngoing",
      "type": "error"
    },
    {
      "inputs": [],
      "name": "ThresholdMet",
      "type": "error"
    },
    {
      "inputs": [],
      "name": "ThresholdNotReached",
      "type": "error"
    },
    {
      "inputs": [],
      "name": "TimeNotReachedToExecute",
      "type": "error"
    },
    {
      "inputs": [],
      "name": "YouCannotStakeZeroAmount",
      "type": "error"
    },
    {
      "inputs": [],
      "name": "ZeroAddressDetected",
      "type": "error"
    },
    {
      "anonymous": false,
      "inputs": [
        {
          "indexed": true,
          "internalType": "address",
          "name": "_user",
          "type": "address"
        },
        {
          "indexed": true,
          "internalType": "uint256",
          "name": "_amount",
          "type": "uint256"
        }
      ],
      "name": "Stake",
      "type": "event"
    },
    {
      "anonymous": false,
      "inputs": [
        {
          "indexed": true,
          "internalType": "address",
          "name": "_user",
          "type": "address"
        }
      ],
      "name": "StakeWithdrawn",
      "type": "event"
    },
    {
      "inputs": [
        {
          "internalType": "address",
          "name": "",
          "type": "address"
        }
      ],
      "name": "balances",
      "outputs": [
        {
          "internalType": "uint256",
          "name": "",
          "type": "uint256"
        }
      ],
      "stateMutability": "view",
      "type": "function"
    },
    {
      "inputs": [],
      "name": "deadline",
      "outputs": [
        {
          "internalType": "uint256",
          "name": "",
          "type": "uint256"
        }
      ],
      "stateMutability": "view",
      "type": "function"
    },
    {
      "inputs": [],
      "name": "exampleExternalContract",
      "outputs": [
        {
          "internalType": "contract ExampleExternalContract",
          "name": "",
          "type": "address"
        }
      ],
      "stateMutability": "view",
      "type": "function"
    },
    {
      "inputs": [],
      "name": "execute",
      "outputs": [],
      "stateMutability": "nonpayable",
      "type": "function"
    },
    {
      "inputs": [],
      "name": "stake",
      "outputs": [],
      "stateMutability": "payable",
      "type": "function"
    },
    {
      "inputs": [],
      "name": "threshold",
      "outputs": [
        {
          "internalType": "uint256",
          "name": "",
          "type": "uint256"
        }
      ],
      "stateMutability": "view",
      "type": "function"
    },
    {
      "inputs": [],
      "name": "timeLeft",
      "outputs": [
        {
          "internalType": "uint256",
          "name": "",
          "type": "uint256"
        }
      ],
      "stateMutability": "view",
      "type": "function"
    },
    {
      "inputs": [],
      "name": "withdraw",
      "outputs": [],
      "stateMutability": "nonpayable",
      "type": "function"
    },
    {
      "stateMutability": "payable",
      "type": "receive"
    }
  ],
  "transactionHash": "0x0ac5e03c01e4b71b0cd5d0caaa2eaf6f251719d2c7476066a1b824b10f07ce0a",
  "args": [
    "0x554EfCC101599ECE983c2AAb4C2B73a183BbDA81"
  ],
  "numDeployments": 1,
  "solcInputHash": "304aa18004073a166bebc3bbedff5b07",
  "bytecode": "0x6080604052610011426203f480610092565b60025534801561002057600080fd5b506040516105bb3803806105bb83398101604081905261003f91610064565b600080546001600160a01b0319166001600160a01b03929092169190911790556100b6565b600060208284031215610075578081fd5b81516001600160a01b038116811461008b578182fd5b9392505050565b600082198211156100b157634e487b7160e01b81526011600452602481fd5b500190565b6104f6806100c56000396000f3fe60806040526004361061007f5760003560e01c80633ccfd60b1161004e5780633ccfd60b1461012257806342cde4e81461013757806361461954146101535780639f75f2271461016857600080fd5b80631300a6d1146100b757806327e235e3146100df57806329dcb0cf1461010c5780633a4b66f1146100a857600080fd5b366100b25760035460ff16156100a8576040516303ad753960e21b815260040160405180910390fd5b6100b06101a0565b005b600080fd5b3480156100c357600080fd5b506100cc610256565b6040519081526020015b60405180910390f35b3480156100eb57600080fd5b506100cc6100fa36600461044d565b60016020526000908152604090205481565b34801561011857600080fd5b506100cc60025481565b34801561012e57600080fd5b506100b061027a565b34801561014357600080fd5b506100cc670de0b6b3a764000081565b34801561015f57600080fd5b506100b0610380565b34801561017457600080fd5b50600054610188906001600160a01b031681565b6040516001600160a01b0390911681526020016100d6565b336101be57604051632887dd7560e11b815260040160405180910390fd5b600034116101df576040516311d75eb360e31b815260040160405180910390fd5b60035460ff1615610203576040516337000ecb60e21b815260040160405180910390fd5b336000908152600160205260408120805434929061022290849061047b565b9091555050604051349033907febedb8b3c678666e7f36970bc8f57abf6d8fa2e828c0da91ea5b75bf68ed101a90600090a3565b600060025442106102675750600090565b426002546102759190610493565b905090565b3361029857604051632887dd7560e11b815260040160405180910390fd5b670de0b6b3a764000047106102c0576040516320b8f6d160e01b815260040160405180910390fd5b6002544210156102e35760405163762fbab560e01b815260040160405180910390fd5b3360009081526001602052604090205461031057604051636b7f015160e01b815260040160405180910390fd5b33600081815260016020526040808220805490839055905190929183156108fc02918491818181858888f19350505050158015610351573d6000803e3d6000fd5b5060405133907f4a7934670bd8304e7da22378be1368f7c4fef17c5aee81804beda8638fe428ec90600090a250565b4260025411156103a3576040516390ccd64560e01b815260040160405180910390fd5b60035460ff16156103c7576040516303ad753960e21b815260040160405180910390fd5b6003805460ff19166001179055670de0b6b3a7640000471061044b5760008054906101000a90046001600160a01b03166001600160a01b031663522e1177476040518263ffffffff1660e01b81526004016000604051808303818588803b15801561043157600080fd5b505af1158015610445573d6000803e3d6000fd5b50505050505b565b60006020828403121561045e578081fd5b81356001600160a01b0381168114610474578182fd5b9392505050565b6000821982111561048e5761048e6104aa565b500190565b6000828210156104a5576104a56104aa565b500390565b634e487b7160e01b600052601160045260246000fdfea2646970667358221220d204491853443272089b6c9acaf8b6cbeb644fcc92e71cb71a6df43cb92e96d664736f6c63430008040033",
  "devdoc": {
    "kind": "dev",
    "methods": {},
    "version": 1
  },
  "userdoc": {
    "kind": "user",
    "methods": {},
    "version": 1
  },
  "storageLayout": {
    "storage": [
      {
        "astId": 19,
        "contract": "contracts/Staker.sol:Staker",
        "label": "exampleExternalContract",
        "offset": 0,
        "slot": "0",
        "type": "t_contract(ExampleExternalContract)12"
      },
      {
        "astId": 51,
        "contract": "contracts/Staker.sol:Staker",
        "label": "balances",
        "offset": 0,
        "slot": "1",
        "type": "t_mapping(t_address,t_uint256)"
      },
      {
        "astId": 57,
        "contract": "contracts/Staker.sol:Staker",
        "label": "deadline",
        "offset": 0,
        "slot": "2",
        "type": "t_uint256"
      },
      {
        "astId": 62,
        "contract": "contracts/Staker.sol:Staker",
        "label": "executed",
        "offset": 0,
        "slot": "3",
        "type": "t_bool"
      },
      {
        "astId": 64,
        "contract": "contracts/Staker.sol:Staker",
        "label": "openWithdraw",
        "offset": 1,
        "slot": "3",
        "type": "t_bool"
      }
    ],
    "types": {
      "t_address": {
        "encoding": "inplace",
        "label": "address",
        "numberOfBytes": "20"
      },
      "t_bool": {
        "encoding": "inplace",
        "label": "bool",
        "numberOfBytes": "1"
      },
      "t_contract(ExampleExternalContract)12": {
        "encoding": "inplace",
        "label": "contract ExampleExternalContract",
        "numberOfBytes": "20"
      },
      "t_mapping(t_address,t_uint256)": {
        "encoding": "mapping",
        "key": "t_address",
        "label": "mapping(address => uint256)",
        "numberOfBytes": "32",
        "value": "t_uint256"
      },
      "t_uint256": {
        "encoding": "inplace",
        "label": "uint256",
        "numberOfBytes": "32"
      }
    }
  }
}